{
  "_format": "hh-sol-artifact-1",
  "contractName": "Farm",
  "sourceName": "contracts/farm/Farm.sol",
  "abi": [
    {
      "inputs": [
        {
          "internalType": "address",
          "name": "_factory",
          "type": "address"
        },
        {
          "internalType": "address",
          "name": "_farmGenerator",
          "type": "address"
        }
      ],
      "stateMutability": "nonpayable",
      "type": "constructor"
    },
    {
      "anonymous": false,
      "inputs": [
        {
          "indexed": true,
          "internalType": "address",
          "name": "user",
          "type": "address"
        },
        {
          "indexed": false,
          "internalType": "uint256",
          "name": "amount",
          "type": "uint256"
        }
      ],
      "name": "Deposit",
      "type": "event"
    },
    {
      "anonymous": false,
      "inputs": [
        {
          "indexed": true,
          "internalType": "address",
          "name": "user",
          "type": "address"
        },
        {
          "indexed": false,
          "internalType": "uint256",
          "name": "amount",
          "type": "uint256"
        }
      ],
      "name": "EmergencyWithdraw",
      "type": "event"
    },
    {
      "anonymous": false,
      "inputs": [
        {
          "indexed": true,
          "internalType": "address",
          "name": "user",
          "type": "address"
        },
        {
          "indexed": false,
          "internalType": "uint256",
          "name": "amount",
          "type": "uint256"
        }
      ],
      "name": "Withdraw",
      "type": "event"
    },
    {
      "inputs": [],
      "name": "MAGIC_NUMBER",
      "outputs": [
        {
          "internalType": "uint256",
          "name": "",
          "type": "uint256"
        }
      ],
      "stateMutability": "view",
      "type": "function"
    },
    {
      "inputs": [],
      "name": "accRewardPerShare",
      "outputs": [
        {
          "internalType": "uint256",
          "name": "",
          "type": "uint256"
        }
      ],
      "stateMutability": "view",
      "type": "function"
    },
    {
      "inputs": [
        {
          "internalType": "uint256",
          "name": "_amount",
          "type": "uint256"
        }
      ],
      "name": "deposit",
      "outputs": [],
      "stateMutability": "nonpayable",
      "type": "function"
    },
    {
      "inputs": [],
      "name": "emergencyWithdraw",
      "outputs": [],
      "stateMutability": "nonpayable",
      "type": "function"
    },
    {
      "inputs": [],
      "name": "factory",
      "outputs": [
        {
          "internalType": "contract IFarmFactory",
          "name": "",
          "type": "address"
        }
      ],
      "stateMutability": "view",
      "type": "function"
    },
    {
      "inputs": [],
      "name": "firstCycleRate",
      "outputs": [
        {
          "internalType": "uint256",
          "name": "",
          "type": "uint256"
        }
      ],
      "stateMutability": "view",
      "type": "function"
    },
    {
      "inputs": [],
      "name": "forceEnd",
      "outputs": [],
      "stateMutability": "nonpayable",
      "type": "function"
    },
    {
      "inputs": [
        {
          "internalType": "uint256",
          "name": "_fromBlock",
          "type": "uint256"
        },
        {
          "internalType": "uint256",
          "name": "_toBlock",
          "type": "uint256"
        }
      ],
      "name": "getMultiplier",
      "outputs": [
        {
          "internalType": "uint256",
          "name": "",
          "type": "uint256"
        }
      ],
      "stateMutability": "view",
      "type": "function"
    },
    {
      "inputs": [
        {
          "internalType": "contract IERC20",
          "name": "_rewardToken",
          "type": "address"
        },
        {
          "internalType": "contract IERC20",
          "name": "_lpToken",
          "type": "address"
        },
        {
          "internalType": "uint256",
          "name": "_rewardPerBlock",
          "type": "uint256"
        },
        {
          "internalType": "uint256",
          "name": "_startBlock",
          "type": "uint256"
        },
        {
          "internalType": "uint256[]",
          "name": "_rateParameters",
          "type": "uint256[]"
        },
        {
          "internalType": "uint256[]",
          "name": "_vestingParameters",
          "type": "uint256[]"
        },
        {
          "internalType": "address",
          "name": "_owner",
          "type": "address"
        }
      ],
      "name": "init",
      "outputs": [],
      "stateMutability": "nonpayable",
      "type": "function"
    },
    {
      "inputs": [],
      "name": "initRate",
      "outputs": [
        {
          "internalType": "uint256",
          "name": "",
          "type": "uint256"
        }
      ],
      "stateMutability": "view",
      "type": "function"
    },
    {
      "inputs": [],
      "name": "isActive",
      "outputs": [
        {
          "internalType": "bool",
          "name": "",
          "type": "bool"
        }
      ],
      "stateMutability": "view",
      "type": "function"
    },
    {
      "inputs": [],
      "name": "lastRewardBlock",
      "outputs": [
        {
          "internalType": "uint256",
          "name": "",
          "type": "uint256"
        }
      ],
      "stateMutability": "view",
      "type": "function"
    },
    {
      "inputs": [],
      "name": "lpToken",
      "outputs": [
        {
          "internalType": "contract IERC20",
          "name": "",
          "type": "address"
        }
      ],
      "stateMutability": "view",
      "type": "function"
    },
    {
      "inputs": [],
      "name": "owner",
      "outputs": [
        {
          "internalType": "address",
          "name": "",
          "type": "address"
        }
      ],
      "stateMutability": "view",
      "type": "function"
    },
    {
      "inputs": [
        {
          "internalType": "address",
          "name": "_user",
          "type": "address"
        }
      ],
      "name": "pendingReward",
      "outputs": [
        {
          "internalType": "uint256",
          "name": "",
          "type": "uint256"
        }
      ],
      "stateMutability": "view",
      "type": "function"
    },
    {
      "inputs": [],
      "name": "percentForVesting",
      "outputs": [
        {
          "internalType": "uint256",
          "name": "",
          "type": "uint256"
        }
      ],
      "stateMutability": "view",
      "type": "function"
    },
    {
      "inputs": [],
      "name": "reducingCycle",
      "outputs": [
        {
          "internalType": "uint256",
          "name": "",
          "type": "uint256"
        }
      ],
      "stateMutability": "view",
      "type": "function"
    },
    {
      "inputs": [],
      "name": "reducingRate",
      "outputs": [
        {
          "internalType": "uint256",
          "name": "",
          "type": "uint256"
        }
      ],
      "stateMutability": "view",
      "type": "function"
    },
    {
      "inputs": [
        {
          "internalType": "address",
          "name": "tokenToRescue",
          "type": "address"
        },
        {
          "internalType": "address",
          "name": "to",
          "type": "address"
        },
        {
          "internalType": "uint256",
          "name": "amount",
          "type": "uint256"
        }
      ],
      "name": "rescueFunds",
      "outputs": [],
      "stateMutability": "nonpayable",
      "type": "function"
    },
    {
      "inputs": [],
      "name": "rewardPerBlock",
      "outputs": [
        {
          "internalType": "uint256",
          "name": "",
          "type": "uint256"
        }
      ],
      "stateMutability": "view",
      "type": "function"
    },
    {
      "inputs": [],
      "name": "rewardToken",
      "outputs": [
        {
          "internalType": "contract IERC20",
          "name": "",
          "type": "address"
        }
      ],
      "stateMutability": "view",
      "type": "function"
    },
    {
      "inputs": [],
      "name": "stakingGenerator",
      "outputs": [
        {
          "internalType": "address",
          "name": "",
          "type": "address"
        }
      ],
      "stateMutability": "view",
      "type": "function"
    },
    {
      "inputs": [],
      "name": "stakingUserCount",
      "outputs": [
        {
          "internalType": "uint256",
          "name": "",
          "type": "uint256"
        }
      ],
      "stateMutability": "view",
      "type": "function"
    },
    {
      "inputs": [],
      "name": "startBlock",
      "outputs": [
        {
          "internalType": "uint256",
          "name": "",
          "type": "uint256"
        }
      ],
      "stateMutability": "view",
      "type": "function"
    },
    {
      "inputs": [
        {
          "internalType": "address",
          "name": "_owner",
          "type": "address"
        }
      ],
      "name": "transferOwnership",
      "outputs": [],
      "stateMutability": "nonpayable",
      "type": "function"
    },
    {
      "inputs": [
        {
          "internalType": "uint256",
          "name": "_percentForVesting",
          "type": "uint256"
        }
      ],
      "name": "updatePercentForVesting",
      "outputs": [],
      "stateMutability": "nonpayable",
      "type": "function"
    },
    {
      "inputs": [],
      "name": "updatePool",
      "outputs": [],
      "stateMutability": "nonpayable",
      "type": "function"
    },
    {
      "inputs": [
        {
          "internalType": "uint256",
          "name": "_reducingRate",
          "type": "uint256"
        }
      ],
      "name": "updateReducingRate",
      "outputs": [],
      "stateMutability": "nonpayable",
      "type": "function"
    },
    {
      "inputs": [
        {
          "internalType": "address",
          "name": "",
          "type": "address"
        }
      ],
      "name": "userInfo",
      "outputs": [
        {
          "internalType": "uint256",
          "name": "amount",
          "type": "uint256"
        },
        {
          "internalType": "uint256",
          "name": "rewardDebt",
          "type": "uint256"
        }
      ],
      "stateMutability": "view",
      "type": "function"
    },
    {
      "inputs": [],
      "name": "vesting",
      "outputs": [
        {
          "internalType": "contract Vesting",
          "name": "",
          "type": "address"
        }
      ],
      "stateMutability": "view",
      "type": "function"
    },
    {
      "inputs": [
        {
          "internalType": "uint256",
          "name": "_amount",
          "type": "uint256"
        }
      ],
      "name": "withdraw",
      "outputs": [],
      "stateMutability": "nonpayable",
      "type": "function"
    }
  ],
  "bytecode": "0x608060405264e8d4a510006000553480156200001a57600080fd5b50604051620034e8380380620034e88339810160408190526200003d916200008c565b600e80546001600160a01b039384166001600160a01b031991821617909155600f8054929093169116179055620000c3565b80516001600160a01b03811681146200008757600080fd5b919050565b600080604083850312156200009f578182fd5b620000aa836200006f565b9150620000ba602084016200006f565b90509250929050565b61341580620000d36000396000f3fe60806040523480156200001157600080fd5b5060043610620002145760003560e01c80638ae39cac1162000129578063c45a015511620000b1578063f2fde38b116200007b578063f2fde38b14620003d7578063f40f0f5214620003ee578063f7c618c11462000405578063fca7a0e0146200040f5762000214565b8063c45a015514620003af578063c9323e3114620003b9578063db2e21bc14620003c3578063e3161ddd14620003cd5762000214565b8063a9f8d18111620000f3578063a9f8d181146200037a578063b5c3f9e51462000384578063b6b55f25146200038e578063c3e2528c14620003a55762000214565b80638ae39cac14620003455780638da5cb5b146200034f5780638dbb1e3a1462000359578063939d623714620003705762000214565b806348cd4cb111620001ad5780636986441811620001775780636986441814620003035780636ccae054146200030d5780636eb9830414620003245780637fe29508146200033b5762000214565b806348cd4cb114620002ce5780634ee0ab0d14620002d85780635fcbd28514620002e2578063686477f414620002ec5762000214565b80632e1a7d4d11620001ef5780632e1a7d4d146200027b5780633992fba514620002945780633c5171c4146200029e57806344c63eec14620002b55762000214565b8063081399c014620002195780631959a002146200023b57806322f3e2d41462000262575b600080fd5b6200022362000419565b6040516200023291906200210b565b60405180910390f35b620002526200024c36600462001ad2565b6200041f565b6040516200023292919062002114565b6200026c62000438565b60405162000232919062001cf0565b620002926200028c36600462001c13565b62000441565b005b6200022362000752565b62000292620002af36600462001b58565b62000758565b620002bf62000be3565b60405162000232919062001c85565b6200022362000bf2565b6200029262000bf8565b620002bf62000c65565b62000292620002fd36600462001c13565b62000c74565b6200022362000cca565b620002926200031e36600462001af1565b62000cd0565b620002926200033536600462001c13565b62000d49565b620002bf62000dd6565b6200022362000de5565b620002bf62000deb565b620002236200036a36600462001c45565b62000dfa565b6200022362000e25565b6200022362000e2b565b6200022362000e31565b620002926200039f36600462001c13565b62000e37565b6200022362001122565b620002bf62001128565b6200022362001137565b620002926200113d565b6200029262001239565b62000292620003e836600462001ad2565b6200137a565b62000223620003ff36600462001ad2565b620013c9565b620002bf62001532565b6200022362001541565b600c5481565b6012602052600090815260409020805460019091015482565b60095460ff1681565b33600090815260126020526040902080548211156200047d5760405162461bcd60e51b8152600401620004749062001ddf565b60405180910390fd5b60095460ff1615156001141562000498576200049862001239565b805482148015620004a95750600082115b156200052e57600e54604051631db2c95560e21b81526001600160a01b03909116906376cb255490620004e190339060040162001c85565b600060405180830381600087803b158015620004fc57600080fd5b505af115801562000511573d6000803e3d6000fd5b5050600880549250905060006200052883620022f4565b91905055505b6000816001015460005460075484600001546200054c919062002289565b6200055891906200213d565b620005649190620022ab565b6003546040516370a0823160e01b81529192506000916001600160a01b03909116906370a08231906200059c90309060040162001c85565b60206040518083038186803b158015620005b557600080fd5b505afa158015620005ca573d6000803e3d6000fd5b505050506040513d601f19601f82011682018060405250810190620005f0919062001c2c565b905080821115620005ff578091505b6011546000901562000693576064601154846200061d919062002289565b6200062991906200213d565b6010546040516395fcb00d60e01b81529192506001600160a01b0316906395fcb00d906200065e903390859060040162001cd7565b600060405180830381600087803b1580156200067957600080fd5b505af11580156200068e573d6000803e3d6000fd5b505050505b620006b833620006a48386620022ab565b6003546001600160a01b0316919062001547565b8354620006c7908690620022ab565b8085556000546007549091620006de919062002289565b620006ea91906200213d565b600185015560025462000708906001600160a01b0316338762001547565b336001600160a01b03167f884edad9ce6fa2440d8a54cc123490eb96d2768479d49ff9c7366125a9424364866040516200074391906200210b565b60405180910390a25050505050565b60005481565b600f546001600160a01b03163314620007855760405162461bcd60e51b8152600401620004749062001e89565b6001600160a01b038716620007ae5760405162461bcd60e51b8152600401620004749062001d67565b6103e88511620007d25760405162461bcd60e51b8152600401620004749062001fce565b438411620007f45760405162461bcd60e51b8152600401620004749062001d30565b6064826000815181106200081857634e487b7160e01b600052603260045260246000fd5b60200260200101511115620008415760405162461bcd60e51b8152600401620004749062001d9e565b6000836000815181106200086557634e487b7160e01b600052603260045260246000fd5b6020026020010151116200088d5760405162461bcd60e51b8152600401620004749062001e0c565b600083600181518110620008b157634e487b7160e01b600052603260045260246000fd5b602002602001015111620008d95760405162461bcd60e51b8152600401620004749062001ee9565b600083600281518110620008fd57634e487b7160e01b600052603260045260246000fd5b60200260200101511180156200093c57506064836001815181106200093257634e487b7160e01b600052603260045260246000fd5b6020026020010151105b6200095b5760405162461bcd60e51b8152600401620004749062001eb2565b6000836003815181106200097f57634e487b7160e01b600052603260045260246000fd5b602002602001015111620009a75760405162461bcd60e51b815260040162000474906200204f565b600380546001600160a01b0319166001600160a01b0389161790556004849055600585905582518390600090620009ee57634e487b7160e01b600052603260045260246000fd5b6020026020010151600a819055508260018151811062000a1e57634e487b7160e01b600052603260045260246000fd5b6020026020010151600b819055508260028151811062000a4e57634e487b7160e01b600052603260045260246000fd5b6020026020010151600c819055508260038151811062000a7e57634e487b7160e01b600052603260045260246000fd5b6020908102919091010151600d556009805460ff1916600190811790915580546001600160a01b038084166001600160a01b031992831617909255600280549289169290911691909117905543841062000ad9578362000adb565b435b6006556000600781905582518390829062000b0657634e487b7160e01b600052603260045260246000fd5b6020026020010151111562000bda578160008151811062000b3757634e487b7160e01b600052603260045260246000fd5b6020026020010151601181905550868260018151811062000b6857634e487b7160e01b600052603260045260246000fd5b602002602001015160405162000b7e9062001a22565b62000b8b92919062001cd7565b604051809103906000f08015801562000ba8573d6000803e3d6000fd5b50601080546001600160a01b0319166001600160a01b03928316179081905562000bda918981169116600019620015a1565b50505050505050565b6010546001600160a01b031681565b60045481565b6001546001600160a01b0316331462000c255760405162461bcd60e51b81526004016200047490620020dc565b60095460ff16151560011462000c4f5760405162461bcd60e51b8152600401620004749062001f6d565b62000c5962001239565b6009805460ff19169055565b6002546001600160a01b031681565b6001546001600160a01b0316331462000ca15760405162461bcd60e51b81526004016200047490620020dc565b606481111562000cc55760405162461bcd60e51b8152600401620004749062001d9e565b601155565b600d5481565b6001546001600160a01b0316331462000cfd5760405162461bcd60e51b81526004016200047490620020dc565b6002546001600160a01b038481169116141562000d2e5760405162461bcd60e51b8152600401620004749062001f20565b62000d446001600160a01b038416838362001547565b505050565b6001546001600160a01b0316331462000d765760405162461bcd60e51b81526004016200047490620020dc565b60095460ff16151560011462000da05760405162461bcd60e51b8152600401620004749062001f6d565b60008111801562000db2575060648111155b62000dd15760405162461bcd60e51b8152600401620004749062001eb2565b600c55565b600f546001600160a01b031681565b60055481565b6001546001600160a01b031690565b600062000e078362001671565b62000e128362001671565b62000e1e9190620022ab565b9392505050565b60075481565b60065481565b60115481565b60095460ff16151560011462000e615760405162461bcd60e51b8152600401620004749062001f6d565b33600090815260126020526040902062000e7a62001239565b80541562000ffc5760008160010154600054600754846000015462000ea0919062002289565b62000eac91906200213d565b62000eb89190620022ab565b6003546040516370a0823160e01b81529192506000916001600160a01b03909116906370a082319062000ef090309060040162001c85565b60206040518083038186803b15801562000f0957600080fd5b505afa15801562000f1e573d6000803e3d6000fd5b505050506040513d601f19601f8201168201806040525081019062000f44919062001c2c565b90508082111562000f53578091505b6011546000901562000fe75760646011548462000f71919062002289565b62000f7d91906200213d565b6010546040516395fcb00d60e01b81529192506001600160a01b0316906395fcb00d9062000fb2903390859060040162001cd7565b600060405180830381600087803b15801562000fcd57600080fd5b505af115801562000fe2573d6000803e3d6000fd5b505050505b62000ff833620006a48386620022ab565b5050505b80541580156200100c5750600082115b156200109157600e546040516379cdf99b60e01b81526001600160a01b03909116906379cdf99b906200104490339060040162001c85565b600060405180830381600087803b1580156200105f57600080fd5b505af115801562001074573d6000803e3d6000fd5b5050600880549250905060006200108b836200230e565b91905055505b600254620010ab906001600160a01b031633308562001836565b8054620010ba90839062002122565b8082556000546007549091620010d1919062002289565b620010dd91906200213d565b600182015560405133907fe1fffcc4923d04b559f4d29a8bfc6cda04eb5b0d3c460751c2402c5c5cc9109c90620011169085906200210b565b60405180910390a25050565b60085481565b600e546001600160a01b031681565b600b5481565b3360008181526012602052604090208054600254919262001168926001600160a01b03169162001547565b805460405133917f5fafa99d0643513820be26656b45130b01e1c03062e1266bf36f88cbd3bd9695916200119d91906200210b565b60405180910390a28054156200122c57600e54604051631db2c95560e21b81526001600160a01b03909116906376cb255490620011df90339060040162001c85565b600060405180830381600087803b158015620011fa57600080fd5b505af11580156200120f573d6000803e3d6000fd5b5050600880549250905060006200122683620022f4565b91905055505b6000808255600190910155565b60095460ff161515600114620012635760405162461bcd60e51b8152600401620004749062001f6d565b6006544311620012735762001378565b6002546040516370a0823160e01b81526000916001600160a01b0316906370a0823190620012a690309060040162001c85565b60206040518083038186803b158015620012bf57600080fd5b505afa158015620012d4573d6000803e3d6000fd5b505050506040513d601f19601f82011682018060405250810190620012fa919062001c2c565b9050806200130d57504360065562001378565b60006200131d6006544362000dfa565b9050600080546005548362001333919062002289565b6200133f91906200213d565b9050826000548262001352919062002289565b6200135e91906200213d565b6007546200136d919062002122565b600755505043600655505b565b6001546001600160a01b03163314620013a75760405162461bcd60e51b81526004016200047490620020dc565b600180546001600160a01b0319166001600160a01b0392909216919091179055565b6001600160a01b0380821660009081526012602052604080822060075460025492516370a0823160e01b8152939491939092859216906370a08231906200141590309060040162001c85565b60206040518083038186803b1580156200142e57600080fd5b505afa15801562001443573d6000803e3d6000fd5b505050506040513d601f19601f8201168201806040525081019062001469919062001c2c565b9050600654431180156200147c57508015155b801562001490575060095460ff1615156001145b15620014f8576000620014a66006544362000dfa565b90506000805460055483620014bc919062002289565b620014c891906200213d565b90508260005482620014db919062002289565b620014e791906200213d565b620014f3908562002122565b935050505b600183015460005484546200150f90859062002289565b6200151b91906200213d565b620015279190620022ab565b93505050505b919050565b6003546001600160a01b031681565b600a5481565b62000d448363a9059cbb60e01b84846040516024016200156992919062001cd7565b60408051601f198184030181529190526020810180516001600160e01b03166001600160e01b03199093169290921790915262001860565b801580620016305750604051636eb1769f60e11b81526001600160a01b0384169063dd62ed3e90620015da903090869060040162001c99565b60206040518083038186803b158015620015f357600080fd5b505afa15801562001608573d6000803e3d6000fd5b505050506040513d601f19601f820116820180604052508101906200162e919062001c2c565b155b6200164f5760405162461bcd60e51b8152600401620004749062002086565b62000d448363095ea7b360e01b84846040516024016200156992919062001cd7565b6000600454821162001686575060006200152d565b600060045483620016989190620022ab565b90506000600d5482620016ac91906200213d565b905080620016dc57600054600a54620016c6908462002289565b620016d2919062002289565b925050506200152d565b60008054600a54600d54620016f2919062002289565b620016fe919062002289565b905060005b62001710600184620022ab565b8110156200179157600d5462001728826064620021a1565b82600c54620017389190620021a1565b600b546000546200174a919062002289565b62001756919062002289565b6200176291906200213d565b6200176e919062002289565b6200177a908362002122565b91508062001788816200230e565b91505062001703565b6000600d5460045488620017a69190620022ab565b620017b291906200232c565b11156200182a57600d54620017c890856200232c565b620017d5826064620021a1565b82600c54620017e59190620021a1565b600b54600054620017f7919062002289565b62001803919062002289565b6200180f91906200213d565b6200181b919062002289565b62001827908362002122565b91505b5092506200152d915050565b6200185a846323b872dd60e01b858585604051602401620015699392919062001cb3565b50505050565b6000620018b7826040518060400160405280602081526020017f5361666545524332303a206c6f772d6c6576656c2063616c6c206661696c6564815250856001600160a01b0316620018f79092919063ffffffff16565b80519091501562000d445780806020019051810190620018d8919062001b36565b62000d445760405162461bcd60e51b8152600401620004749062002005565b606062001908848460008562001910565b949350505050565b606082471015620019355760405162461bcd60e51b8152600401620004749062001e43565b6200194085620019de565b6200195f5760405162461bcd60e51b8152600401620004749062001f97565b600080866001600160a01b031685876040516200197d919062001c67565b60006040518083038185875af1925050503d8060008114620019bc576040519150601f19603f3d011682016040523d82523d6000602084013e620019c1565b606091505b5091509150620019d3828286620019e4565b979650505050505050565b3b151590565b60608315620019f557508162000e1e565b82511562001a065782518084602001fd5b8160405162461bcd60e51b815260040162000474919062001cfb565b611041806200239f83390190565b600082601f83011262001a41578081fd5b8135602067ffffffffffffffff8083111562001a615762001a616200236f565b8183026040518382820101818110848211171562001a835762001a836200236f565b6040528481528381019250868401828801850189101562001aa2578687fd5b8692505b8583101562001ac657803584529284019260019290920191840162001aa6565b50979650505050505050565b60006020828403121562001ae4578081fd5b813562000e1e8162002385565b60008060006060848603121562001b06578182fd5b833562001b138162002385565b9250602084013562001b258162002385565b929592945050506040919091013590565b60006020828403121562001b48578081fd5b8151801515811462000e1e578182fd5b600080600080600080600060e0888a03121562001b73578283fd5b873562001b808162002385565b9650602088013562001b928162002385565b95506040880135945060608801359350608088013567ffffffffffffffff8082111562001bbd578485fd5b62001bcb8b838c0162001a30565b945060a08a013591508082111562001be1578384fd5b5062001bf08a828b0162001a30565b92505060c088013562001c038162002385565b8091505092959891949750929550565b60006020828403121562001c25578081fd5b5035919050565b60006020828403121562001c3e578081fd5b5051919050565b6000806040838503121562001c58578182fd5b50508035926020909101359150565b6000825162001c7b818460208701620022c5565b9190910192915050565b6001600160a01b0391909116815260200190565b6001600160a01b0392831681529116602082015260400190565b6001600160a01b039384168152919092166020820152604081019190915260600190565b6001600160a01b03929092168252602082015260400190565b901515815260200190565b600060208252825180602084015262001d1c816040850160208701620022c5565b601f01601f19169190910160400192915050565b60208082526019908201527f4661726d3a20496e76616c696420737461727420626c6f636b00000000000000604082015260600190565b6020808252601a908201527f4661726d3a20496e76616c69642072657761726420746f6b656e000000000000604082015260600190565b60208082526021908201527f4661726d3a20496e76616c69642070657263656e7420666f722076657374696e6040820152606760f81b606082015260800190565b6020808252601390820152721a5b9cdd59999a58da595b9d08185b5bdd5b9d606a1b604082015260600190565b6020808252601e908201527f4661726d3a20496e76616c6964206669727374206379636c6520726174650000604082015260600190565b60208082526026908201527f416464726573733a20696e73756666696369656e742062616c616e636520666f6040820152651c8818d85b1b60d21b606082015260800190565b6020808252600f908201526e2330b9369d102327a92124a22222a760891b604082015260600190565b6020808252601b908201527f4661726d3a20496e76616c6964207265647563696e6720726174650000000000604082015260600190565b6020808252601a908201527f4661726d3a20496e76616c696420696e697469616c2072617465000000000000604082015260600190565b6020808252602d908201527f4661726d3a2043616e6e6f7420636c61696d20746f6b656e2068656c6420627960408201526c081d1a194818dbdb9d1c9858dd609a1b606082015260800190565b60208082526010908201526f4661726d3a204e6f742061637469766560801b604082015260600190565b6020808252601d908201527f416464726573733a2063616c6c20746f206e6f6e2d636f6e7472616374000000604082015260600190565b6020808252601a908201527f4661726d3a20496e76616c696420626c6f636b20726577617264000000000000604082015260600190565b6020808252602a908201527f5361666545524332303a204552433230206f7065726174696f6e20646964206e6040820152691bdd081cdd58d8d9595960b21b606082015260800190565b6020808252601c908201527f4661726d3a20496e76616c6964207265647563696e67206379636c6500000000604082015260600190565b60208082526036908201527f5361666545524332303a20617070726f76652066726f6d206e6f6e2d7a65726f60408201527520746f206e6f6e2d7a65726f20616c6c6f77616e636560501b606082015260800190565b6020808252601590820152742330b9369d102cb7ba9030b932903737ba1037bbb760591b604082015260600190565b90815260200190565b918252602082015260400190565b6000821982111562002138576200213862002343565b500190565b6000826200214f576200214f62002359565b500490565b80825b600180861162002168575062002198565b8187048211156200217d576200217d62002343565b808616156200218b57918102915b9490941c93800262002157565b94509492505050565b600062000e1e6000198484600082620021bd5750600162000e1e565b81620021cc5750600062000e1e565b8160018114620021e55760028114620021f05762002224565b600191505062000e1e565b60ff84111562002204576200220462002343565b6001841b9150848211156200221d576200221d62002343565b5062000e1e565b5060208310610133831016604e8410600b84101617156200225c575081810a8381111562002256576200225662002343565b62000e1e565b6200226b848484600162002154565b80860482111562002280576200228062002343565b02949350505050565b6000816000190483118215151615620022a657620022a662002343565b500290565b600082821015620022c057620022c062002343565b500390565b60005b83811015620022e2578181015183820152602001620022c8565b838111156200185a5750506000910152565b60008162002306576200230662002343565b506000190190565b600060001982141562002325576200232562002343565b5060010190565b6000826200233e576200233e62002359565b500690565b634e487b7160e01b600052601160045260246000fd5b634e487b7160e01b600052601260045260246000fd5b634e487b7160e01b600052604160045260246000fd5b6001600160a01b03811681146200239b57600080fd5b5056fe608060405234801561001057600080fd5b5060405161104138038061104183398101604081905261002f91610090565b6001600081905580546001600160a01b0319166001600160a01b038416179055806100755760405162461bcd60e51b815260040161006c906100c8565b60405180910390fd5b60025550600380546001600160a01b031916331790556100ff565b600080604083850312156100a2578182fd5b82516001600160a01b03811681146100b8578283fd5b6020939093015192949293505050565b60208082526019908201527f56657374696e673a20496e76616c6964206475726174696f6e00000000000000604082015260600190565b610f338061010e6000396000f3fe608060405234801561001057600080fd5b50600436106100b45760003560e01c8063ac97b41711610071578063ac97b4171461013a578063dd19aa571461014d578063e3ed598414610160578063f3b71c3314610173578063f9da3f7514610186578063fc0c546a1461019b576100b4565b80631293aafc146100b95780631514617e146100e25780637a5fa298146100ea5780637c1f241d1461010a57806395fcb00d146101145780639fb28b8914610127575b600080fd5b6100cc6100c7366004610ae3565b6101a3565b6040516100d99190610e11565b60405180910390f35b6100cc6101b8565b6100fd6100f8366004610ae3565b6101be565b6040516100d99190610df0565b61011261027d565b005b610112610122366004610ae3565b6102f4565b6100cc610135366004610aab565b610394565b610112610148366004610b2e565b6103af565b61011261015b366004610b2e565b6103e8565b6100cc61016e366004610aab565b6104a3565b6100cc610181366004610aab565b610596565b61018e6105e1565b6040516100d99190610b62565b61018e6105f0565b60006101af83836105ff565b90505b92915050565b60025481565b6101c6610a8a565b6001600160a01b03831660009081526004602052604090205482106102065760405162461bcd60e51b81526004016101fd90610d08565b60405180910390fd5b6001600160a01b038316600090815260046020526040902080548390811061023e57634e487b7160e01b600052603260045260246000fd5b90600052602060002090600302016040518060600160405290816000820154815260200160018201548152602001600282015481525050905092915050565b600260005414156102a05760405162461bcd60e51b81526004016101fd90610db9565b6002600090815533815260046020526040812054905b818110156102eb5760006102ca33836105ff565b11156102d9576102d9816106ef565b806102e381610eb4565b9150506102b6565b50506001600055565b6003546001600160a01b0316331461031e5760405162461bcd60e51b81526004016101fd90610c63565b600154610336906001600160a01b0316333084610880565b6040805160608101825291825243602080840191825260008484018181526001600160a01b03909616815260048252928320805460018181018355918552919093209351600390910290930192835551908201559051600290910155565b6001600160a01b031660009081526004602052604090205490565b600260005414156103d25760405162461bcd60e51b81526004016101fd90610db9565b60026000556103e0816106ef565b506001600055565b600360009054906101000a90046001600160a01b03166001600160a01b0316638da5cb5b6040518163ffffffff1660e01b815260040160206040518083038186803b15801561043657600080fd5b505afa15801561044a573d6000803e3d6000fd5b505050506040513d601f19601f8201168201806040525081019061046e9190610ac7565b6001600160a01b0316336001600160a01b03161461049e5760405162461bcd60e51b81526004016101fd90610be6565b600255565b6001600160a01b038116600090815260046020526040812054815b8181101561058f576001600160a01b03841660009081526004602052604090208054829081106104fe57634e487b7160e01b600052603260045260246000fd5b90600052602060002090600302016002015460046000866001600160a01b03166001600160a01b03168152602001908152602001600020828154811061055457634e487b7160e01b600052603260045260246000fd5b906000526020600020906003020160000154846105719190610e1a565b61057b9190610e71565b92508061058781610eb4565b9150506104be565b5050919050565b6001600160a01b038116600090815260046020526040812054815b8181101561058f576105c384826105ff565b6105cd9084610e1a565b9250806105d981610eb4565b9150506105b1565b6003546001600160a01b031681565b6001546001600160a01b031681565b6001600160a01b038216600090815260046020526040812080548291908490811061063a57634e487b7160e01b600052603260045260246000fd5b60009182526020918290206040805160608101825260039093029091018054835260018101549383018490526002015490820152915043116106805760009150506101b2565b60008160200151436106929190610e71565b9050600060025482106106a7575081516106c4565b60025483516106b7908490610e52565b6106c19190610e32565b90505b6000935082604001518111156106e65760408301516106e39082610e71565b93505b50505092915050565b33600090815260046020526040902054811061071d5760405162461bcd60e51b81526004016101fd90610d08565b600061072933836105ff565b90506000811161074b5760405162461bcd60e51b81526004016101fd90610d82565b33600090815260046020526040902080548291908490811061077d57634e487b7160e01b600052603260045260246000fd5b9060005260206000209060030201600201546107999190610e1a565b3360009081526004602052604090208054849081106107c857634e487b7160e01b600052603260045260246000fd5b600091825260209091206002600390920201015560015460405163a9059cbb60e01b81526001600160a01b039091169063a9059cbb9061080e9033908590600401610b9a565b602060405180830381600087803b15801561082857600080fd5b505af115801561083c573d6000803e3d6000fd5b505050506040513d601f19601f820116820180604052508101906108609190610b0e565b61087c5760405162461bcd60e51b81526004016101fd90610c9a565b5050565b6108d8846323b872dd60e01b8585856040516024016108a193929190610b76565b60408051601f198184030181529190526020810180516001600160e01b03166001600160e01b0319909316929092179091526108de565b50505050565b6000610933826040518060400160405280602081526020017f5361666545524332303a206c6f772d6c6576656c2063616c6c206661696c6564815250856001600160a01b03166109729092919063ffffffff16565b80519091501561096d57808060200190518101906109519190610b0e565b61096d5760405162461bcd60e51b81526004016101fd90610d38565b505050565b6060610981848460008561098b565b90505b9392505050565b6060824710156109ad5760405162461bcd60e51b81526004016101fd90610c1d565b6109b685610a4b565b6109d25760405162461bcd60e51b81526004016101fd90610cd1565b600080866001600160a01b031685876040516109ee9190610b46565b60006040518083038185875af1925050503d8060008114610a2b576040519150601f19603f3d011682016040523d82523d6000602084013e610a30565b606091505b5091509150610a40828286610a51565b979650505050505050565b3b151590565b60608315610a60575081610984565b825115610a705782518084602001fd5b8160405162461bcd60e51b81526004016101fd9190610bb3565b60405180606001604052806000815260200160008152602001600081525090565b600060208284031215610abc578081fd5b813561098481610ee5565b600060208284031215610ad8578081fd5b815161098481610ee5565b60008060408385031215610af5578081fd5b8235610b0081610ee5565b946020939093013593505050565b600060208284031215610b1f578081fd5b81518015158114610984578182fd5b600060208284031215610b3f578081fd5b5035919050565b60008251610b58818460208701610e88565b9190910192915050565b6001600160a01b0391909116815260200190565b6001600160a01b039384168152919092166020820152604081019190915260600190565b6001600160a01b03929092168252602082015260400190565b6000602082528251806020840152610bd2816040850160208701610e88565b601f01601f19169190910160400192915050565b6020808252601f908201527f56657374696e673a20596f7520617265206e6f74206661726d206f776e657200604082015260600190565b60208082526026908201527f416464726573733a20696e73756666696369656e742062616c616e636520666f6040820152651c8818d85b1b60d21b606082015260800190565b60208082526019908201527f56657374696e673a20596f7520617265206e6f74206661726d00000000000000604082015260600190565b60208082526018908201527f56657374696e673a207472616e73666572206661696c65640000000000000000604082015260600190565b6020808252601d908201527f416464726573733a2063616c6c20746f206e6f6e2d636f6e7472616374000000604082015260600190565b6020808252601690820152750accae6e8d2dcce744092dcecc2d8d2c840d2dcc8caf60531b604082015260600190565b6020808252602a908201527f5361666545524332303a204552433230206f7065726174696f6e20646964206e6040820152691bdd081cdd58d8d9595960b21b606082015260800190565b60208082526019908201527f56657374696e673a204e6f7468696e6720746f20636c61696d00000000000000604082015260600190565b6020808252601f908201527f5265656e7472616e637947756172643a207265656e7472616e742063616c6c00604082015260600190565b81518152602080830151908201526040918201519181019190915260600190565b90815260200190565b60008219821115610e2d57610e2d610ecf565b500190565b600082610e4d57634e487b7160e01b81526012600452602481fd5b500490565b6000816000190483118215151615610e6c57610e6c610ecf565b500290565b600082821015610e8357610e83610ecf565b500390565b60005b83811015610ea3578181015183820152602001610e8b565b838111156108d85750506000910152565b6000600019821415610ec857610ec8610ecf565b5060010190565b634e487b7160e01b600052601160045260246000fd5b6001600160a01b0381168114610efa57600080fd5b5056fea2646970667358221220d7d0fc6b7d51279dcd90842a097c5d954d896d60b4334f02ea074f07a5dcc55564736f6c63430008000033a2646970667358221220c64d9c24e2df8d0293c37b6cb0e01628bd72151cec34c738bb9b3d002fab497564736f6c63430008000033",
  "linkReferences": {},
  "deployedLinkReferences": {}
}