{
  "_format": "hh-sol-artifact-1",
  "contractName": "Vesting",
  "sourceName": "contracts/farm/Vesting.sol",
  "abi": [
    {
      "inputs": [
        {
          "internalType": "address",
          "name": "_token",
          "type": "address"
        },
        {
          "internalType": "uint256",
          "name": "_vestingDuration",
          "type": "uint256"
        }
      ],
      "stateMutability": "nonpayable",
      "type": "constructor"
    },
    {
      "inputs": [
        {
          "internalType": "address",
          "name": "_user",
          "type": "address"
        },
        {
          "internalType": "uint256",
          "name": "_amount",
          "type": "uint256"
        }
      ],
      "name": "addVesting",
      "outputs": [],
      "stateMutability": "nonpayable",
      "type": "function"
    },
    {
      "inputs": [],
      "name": "claimTotalVesting",
      "outputs": [],
      "stateMutability": "nonpayable",
      "type": "function"
    },
    {
      "inputs": [
        {
          "internalType": "uint256",
          "name": "_index",
          "type": "uint256"
        }
      ],
      "name": "claimVesting",
      "outputs": [],
      "stateMutability": "nonpayable",
      "type": "function"
    },
    {
      "inputs": [],
      "name": "farmAddress",
      "outputs": [
        {
          "internalType": "address",
          "name": "",
          "type": "address"
        }
      ],
      "stateMutability": "view",
      "type": "function"
    },
    {
      "inputs": [
        {
          "internalType": "address",
          "name": "_user",
          "type": "address"
        }
      ],
      "name": "getTotalAmountLockedByUser",
      "outputs": [
        {
          "internalType": "uint256",
          "name": "amountLocked",
          "type": "uint256"
        }
      ],
      "stateMutability": "view",
      "type": "function"
    },
    {
      "inputs": [
        {
          "internalType": "address",
          "name": "_user",
          "type": "address"
        },
        {
          "internalType": "uint256",
          "name": "_index",
          "type": "uint256"
        }
      ],
      "name": "getVestingClaimableAmount",
      "outputs": [
        {
          "internalType": "uint256",
          "name": "",
          "type": "uint256"
        }
      ],
      "stateMutability": "view",
      "type": "function"
    },
    {
      "inputs": [
        {
          "internalType": "address",
          "name": "_user",
          "type": "address"
        }
      ],
      "name": "getVestingCountByUser",
      "outputs": [
        {
          "internalType": "uint256",
          "name": "count",
          "type": "uint256"
        }
      ],
      "stateMutability": "view",
      "type": "function"
    },
    {
      "inputs": [
        {
          "internalType": "address",
          "name": "_user",
          "type": "address"
        },
        {
          "internalType": "uint256",
          "name": "_index",
          "type": "uint256"
        }
      ],
      "name": "getVestingInfo",
      "outputs": [
        {
          "components": [
            {
              "internalType": "uint256",
              "name": "amount",
              "type": "uint256"
            },
            {
              "internalType": "uint256",
              "name": "startBlock",
              "type": "uint256"
            },
            {
              "internalType": "uint256",
              "name": "claimedAmount",
              "type": "uint256"
            }
          ],
          "internalType": "struct Vesting.VestingInfo",
          "name": "info",
          "type": "tuple"
        }
      ],
      "stateMutability": "view",
      "type": "function"
    },
    {
      "inputs": [
        {
          "internalType": "address",
          "name": "_user",
          "type": "address"
        }
      ],
      "name": "getVestingTotalClaimableAmount",
      "outputs": [
        {
          "internalType": "uint256",
          "name": "totalClaimableAmount",
          "type": "uint256"
        }
      ],
      "stateMutability": "view",
      "type": "function"
    },
    {
      "inputs": [],
      "name": "token",
      "outputs": [
        {
          "internalType": "contract IERC20",
          "name": "",
          "type": "address"
        }
      ],
      "stateMutability": "view",
      "type": "function"
    },
    {
      "inputs": [
        {
          "internalType": "uint256",
          "name": "_vestingDuration",
          "type": "uint256"
        }
      ],
      "name": "updateVestingDuration",
      "outputs": [],
      "stateMutability": "nonpayable",
      "type": "function"
    },
    {
      "inputs": [],
      "name": "vestingDuration",
      "outputs": [
        {
          "internalType": "uint256",
          "name": "",
          "type": "uint256"
        }
      ],
      "stateMutability": "view",
      "type": "function"
    }
  ],
  "bytecode": "0x608060405234801561001057600080fd5b5060405161104138038061104183398101604081905261002f91610090565b6001600081905580546001600160a01b0319166001600160a01b038416179055806100755760405162461bcd60e51b815260040161006c906100c8565b60405180910390fd5b60025550600380546001600160a01b031916331790556100ff565b600080604083850312156100a2578182fd5b82516001600160a01b03811681146100b8578283fd5b6020939093015192949293505050565b60208082526019908201527f56657374696e673a20496e76616c6964206475726174696f6e00000000000000604082015260600190565b610f338061010e6000396000f3fe608060405234801561001057600080fd5b50600436106100b45760003560e01c8063ac97b41711610071578063ac97b4171461013a578063dd19aa571461014d578063e3ed598414610160578063f3b71c3314610173578063f9da3f7514610186578063fc0c546a1461019b576100b4565b80631293aafc146100b95780631514617e146100e25780637a5fa298146100ea5780637c1f241d1461010a57806395fcb00d146101145780639fb28b8914610127575b600080fd5b6100cc6100c7366004610ae3565b6101a3565b6040516100d99190610e11565b60405180910390f35b6100cc6101b8565b6100fd6100f8366004610ae3565b6101be565b6040516100d99190610df0565b61011261027d565b005b610112610122366004610ae3565b6102f4565b6100cc610135366004610aab565b610394565b610112610148366004610b2e565b6103af565b61011261015b366004610b2e565b6103e8565b6100cc61016e366004610aab565b6104a3565b6100cc610181366004610aab565b610596565b61018e6105e1565b6040516100d99190610b62565b61018e6105f0565b60006101af83836105ff565b90505b92915050565b60025481565b6101c6610a8a565b6001600160a01b03831660009081526004602052604090205482106102065760405162461bcd60e51b81526004016101fd90610d08565b60405180910390fd5b6001600160a01b038316600090815260046020526040902080548390811061023e57634e487b7160e01b600052603260045260246000fd5b90600052602060002090600302016040518060600160405290816000820154815260200160018201548152602001600282015481525050905092915050565b600260005414156102a05760405162461bcd60e51b81526004016101fd90610db9565b6002600090815533815260046020526040812054905b818110156102eb5760006102ca33836105ff565b11156102d9576102d9816106ef565b806102e381610eb4565b9150506102b6565b50506001600055565b6003546001600160a01b0316331461031e5760405162461bcd60e51b81526004016101fd90610c63565b600154610336906001600160a01b0316333084610880565b6040805160608101825291825243602080840191825260008484018181526001600160a01b03909616815260048252928320805460018181018355918552919093209351600390910290930192835551908201559051600290910155565b6001600160a01b031660009081526004602052604090205490565b600260005414156103d25760405162461bcd60e51b81526004016101fd90610db9565b60026000556103e0816106ef565b506001600055565b600360009054906101000a90046001600160a01b03166001600160a01b0316638da5cb5b6040518163ffffffff1660e01b815260040160206040518083038186803b15801561043657600080fd5b505afa15801561044a573d6000803e3d6000fd5b505050506040513d601f19601f8201168201806040525081019061046e9190610ac7565b6001600160a01b0316336001600160a01b03161461049e5760405162461bcd60e51b81526004016101fd90610be6565b600255565b6001600160a01b038116600090815260046020526040812054815b8181101561058f576001600160a01b03841660009081526004602052604090208054829081106104fe57634e487b7160e01b600052603260045260246000fd5b90600052602060002090600302016002015460046000866001600160a01b03166001600160a01b03168152602001908152602001600020828154811061055457634e487b7160e01b600052603260045260246000fd5b906000526020600020906003020160000154846105719190610e1a565b61057b9190610e71565b92508061058781610eb4565b9150506104be565b5050919050565b6001600160a01b038116600090815260046020526040812054815b8181101561058f576105c384826105ff565b6105cd9084610e1a565b9250806105d981610eb4565b9150506105b1565b6003546001600160a01b031681565b6001546001600160a01b031681565b6001600160a01b038216600090815260046020526040812080548291908490811061063a57634e487b7160e01b600052603260045260246000fd5b60009182526020918290206040805160608101825260039093029091018054835260018101549383018490526002015490820152915043116106805760009150506101b2565b60008160200151436106929190610e71565b9050600060025482106106a7575081516106c4565b60025483516106b7908490610e52565b6106c19190610e32565b90505b6000935082604001518111156106e65760408301516106e39082610e71565b93505b50505092915050565b33600090815260046020526040902054811061071d5760405162461bcd60e51b81526004016101fd90610d08565b600061072933836105ff565b90506000811161074b5760405162461bcd60e51b81526004016101fd90610d82565b33600090815260046020526040902080548291908490811061077d57634e487b7160e01b600052603260045260246000fd5b9060005260206000209060030201600201546107999190610e1a565b3360009081526004602052604090208054849081106107c857634e487b7160e01b600052603260045260246000fd5b600091825260209091206002600390920201015560015460405163a9059cbb60e01b81526001600160a01b039091169063a9059cbb9061080e9033908590600401610b9a565b602060405180830381600087803b15801561082857600080fd5b505af115801561083c573d6000803e3d6000fd5b505050506040513d601f19601f820116820180604052508101906108609190610b0e565b61087c5760405162461bcd60e51b81526004016101fd90610c9a565b5050565b6108d8846323b872dd60e01b8585856040516024016108a193929190610b76565b60408051601f198184030181529190526020810180516001600160e01b03166001600160e01b0319909316929092179091526108de565b50505050565b6000610933826040518060400160405280602081526020017f5361666545524332303a206c6f772d6c6576656c2063616c6c206661696c6564815250856001600160a01b03166109729092919063ffffffff16565b80519091501561096d57808060200190518101906109519190610b0e565b61096d5760405162461bcd60e51b81526004016101fd90610d38565b505050565b6060610981848460008561098b565b90505b9392505050565b6060824710156109ad5760405162461bcd60e51b81526004016101fd90610c1d565b6109b685610a4b565b6109d25760405162461bcd60e51b81526004016101fd90610cd1565b600080866001600160a01b031685876040516109ee9190610b46565b60006040518083038185875af1925050503d8060008114610a2b576040519150601f19603f3d011682016040523d82523d6000602084013e610a30565b606091505b5091509150610a40828286610a51565b979650505050505050565b3b151590565b60608315610a60575081610984565b825115610a705782518084602001fd5b8160405162461bcd60e51b81526004016101fd9190610bb3565b60405180606001604052806000815260200160008152602001600081525090565b600060208284031215610abc578081fd5b813561098481610ee5565b600060208284031215610ad8578081fd5b815161098481610ee5565b60008060408385031215610af5578081fd5b8235610b0081610ee5565b946020939093013593505050565b600060208284031215610b1f578081fd5b81518015158114610984578182fd5b600060208284031215610b3f578081fd5b5035919050565b60008251610b58818460208701610e88565b9190910192915050565b6001600160a01b0391909116815260200190565b6001600160a01b039384168152919092166020820152604081019190915260600190565b6001600160a01b03929092168252602082015260400190565b6000602082528251806020840152610bd2816040850160208701610e88565b601f01601f19169190910160400192915050565b6020808252601f908201527f56657374696e673a20596f7520617265206e6f74206661726d206f776e657200604082015260600190565b60208082526026908201527f416464726573733a20696e73756666696369656e742062616c616e636520666f6040820152651c8818d85b1b60d21b606082015260800190565b60208082526019908201527f56657374696e673a20596f7520617265206e6f74206661726d00000000000000604082015260600190565b60208082526018908201527f56657374696e673a207472616e73666572206661696c65640000000000000000604082015260600190565b6020808252601d908201527f416464726573733a2063616c6c20746f206e6f6e2d636f6e7472616374000000604082015260600190565b6020808252601690820152750accae6e8d2dcce744092dcecc2d8d2c840d2dcc8caf60531b604082015260600190565b6020808252602a908201527f5361666545524332303a204552433230206f7065726174696f6e20646964206e6040820152691bdd081cdd58d8d9595960b21b606082015260800190565b60208082526019908201527f56657374696e673a204e6f7468696e6720746f20636c61696d00000000000000604082015260600190565b6020808252601f908201527f5265656e7472616e637947756172643a207265656e7472616e742063616c6c00604082015260600190565b81518152602080830151908201526040918201519181019190915260600190565b90815260200190565b60008219821115610e2d57610e2d610ecf565b500190565b600082610e4d57634e487b7160e01b81526012600452602481fd5b500490565b6000816000190483118215151615610e6c57610e6c610ecf565b500290565b600082821015610e8357610e83610ecf565b500390565b60005b83811015610ea3578181015183820152602001610e8b565b838111156108d85750506000910152565b6000600019821415610ec857610ec8610ecf565b5060010190565b634e487b7160e01b600052601160045260246000fd5b6001600160a01b0381168114610efa57600080fd5b5056fea2646970667358221220d7d0fc6b7d51279dcd90842a097c5d954d896d60b4334f02ea074f07a5dcc55564736f6c63430008000033",
  "linkReferences": {},
  "deployedLinkReferences": {}
}