{
  "_format": "hh-sol-artifact-1",
  "contractName": "WanaFarm",
  "sourceName": "contracts/wana-staking/WanaFarm.sol",
  "abi": [
    {
      "inputs": [],
      "stateMutability": "nonpayable",
      "type": "constructor"
    },
    {
      "anonymous": false,
      "inputs": [
        {
          "indexed": true,
          "internalType": "address",
          "name": "user",
          "type": "address"
        },
        {
          "indexed": false,
          "internalType": "uint256",
          "name": "amount",
          "type": "uint256"
        }
      ],
      "name": "Deposit",
      "type": "event"
    },
    {
      "anonymous": false,
      "inputs": [
        {
          "indexed": true,
          "internalType": "address",
          "name": "user",
          "type": "address"
        },
        {
          "indexed": false,
          "internalType": "uint256",
          "name": "amount",
          "type": "uint256"
        }
      ],
      "name": "EmergencyWithdraw",
      "type": "event"
    },
    {
      "anonymous": false,
      "inputs": [
        {
          "indexed": true,
          "internalType": "address",
          "name": "previousOwner",
          "type": "address"
        },
        {
          "indexed": true,
          "internalType": "address",
          "name": "newOwner",
          "type": "address"
        }
      ],
      "name": "OwnershipTransferred",
      "type": "event"
    },
    {
      "anonymous": false,
      "inputs": [
        {
          "indexed": true,
          "internalType": "address",
          "name": "user",
          "type": "address"
        },
        {
          "indexed": false,
          "internalType": "uint256",
          "name": "amount",
          "type": "uint256"
        }
      ],
      "name": "Withdraw",
      "type": "event"
    },
    {
      "inputs": [],
      "name": "MAGIC_NUMBER",
      "outputs": [
        {
          "internalType": "uint256",
          "name": "",
          "type": "uint256"
        }
      ],
      "stateMutability": "view",
      "type": "function"
    },
    {
      "inputs": [],
      "name": "accWanaPerShare",
      "outputs": [
        {
          "internalType": "uint256",
          "name": "",
          "type": "uint256"
        }
      ],
      "stateMutability": "view",
      "type": "function"
    },
    {
      "inputs": [
        {
          "internalType": "uint256",
          "name": "_amount",
          "type": "uint256"
        }
      ],
      "name": "deposit",
      "outputs": [],
      "stateMutability": "nonpayable",
      "type": "function"
    },
    {
      "inputs": [],
      "name": "emergencyWithdraw",
      "outputs": [],
      "stateMutability": "nonpayable",
      "type": "function"
    },
    {
      "inputs": [],
      "name": "firstCycleRate",
      "outputs": [
        {
          "internalType": "uint256",
          "name": "",
          "type": "uint256"
        }
      ],
      "stateMutability": "view",
      "type": "function"
    },
    {
      "inputs": [],
      "name": "forceEnd",
      "outputs": [],
      "stateMutability": "nonpayable",
      "type": "function"
    },
    {
      "inputs": [
        {
          "internalType": "uint256",
          "name": "_fromBlock",
          "type": "uint256"
        },
        {
          "internalType": "uint256",
          "name": "_toBlock",
          "type": "uint256"
        }
      ],
      "name": "getMultiplier",
      "outputs": [
        {
          "internalType": "uint256",
          "name": "",
          "type": "uint256"
        }
      ],
      "stateMutability": "view",
      "type": "function"
    },
    {
      "inputs": [],
      "name": "getToken",
      "outputs": [
        {
          "internalType": "address",
          "name": "",
          "type": "address"
        }
      ],
      "stateMutability": "view",
      "type": "function"
    },
    {
      "inputs": [],
      "name": "getTokenPerBlock",
      "outputs": [
        {
          "internalType": "uint256",
          "name": "",
          "type": "uint256"
        }
      ],
      "stateMutability": "view",
      "type": "function"
    },
    {
      "inputs": [
        {
          "internalType": "address",
          "name": "_account",
          "type": "address"
        }
      ],
      "name": "getUserInfo",
      "outputs": [
        {
          "internalType": "uint256",
          "name": "amount",
          "type": "uint256"
        },
        {
          "internalType": "uint256",
          "name": "rewardDebt",
          "type": "uint256"
        }
      ],
      "stateMutability": "view",
      "type": "function"
    },
    {
      "inputs": [],
      "name": "initRate",
      "outputs": [
        {
          "internalType": "uint256",
          "name": "",
          "type": "uint256"
        }
      ],
      "stateMutability": "view",
      "type": "function"
    },
    {
      "inputs": [
        {
          "internalType": "address",
          "name": "_tokenVault",
          "type": "address"
        },
        {
          "internalType": "uint256",
          "name": "_tokenPerBlock",
          "type": "uint256"
        },
        {
          "internalType": "uint256",
          "name": "_startBlock",
          "type": "uint256"
        },
        {
          "internalType": "uint256[]",
          "name": "_rateParameters",
          "type": "uint256[]"
        }
      ],
      "name": "initialize",
      "outputs": [],
      "stateMutability": "nonpayable",
      "type": "function"
    },
    {
      "inputs": [],
      "name": "isActive",
      "outputs": [
        {
          "internalType": "bool",
          "name": "",
          "type": "bool"
        }
      ],
      "stateMutability": "view",
      "type": "function"
    },
    {
      "inputs": [],
      "name": "lastRewardBlock",
      "outputs": [
        {
          "internalType": "uint256",
          "name": "",
          "type": "uint256"
        }
      ],
      "stateMutability": "view",
      "type": "function"
    },
    {
      "inputs": [],
      "name": "owner",
      "outputs": [
        {
          "internalType": "address",
          "name": "",
          "type": "address"
        }
      ],
      "stateMutability": "view",
      "type": "function"
    },
    {
      "inputs": [
        {
          "internalType": "address",
          "name": "_user",
          "type": "address"
        }
      ],
      "name": "pendingToken",
      "outputs": [
        {
          "internalType": "uint256",
          "name": "",
          "type": "uint256"
        }
      ],
      "stateMutability": "view",
      "type": "function"
    },
    {
      "inputs": [],
      "name": "reducingCycle",
      "outputs": [
        {
          "internalType": "uint256",
          "name": "",
          "type": "uint256"
        }
      ],
      "stateMutability": "view",
      "type": "function"
    },
    {
      "inputs": [],
      "name": "reducingRate",
      "outputs": [
        {
          "internalType": "uint256",
          "name": "",
          "type": "uint256"
        }
      ],
      "stateMutability": "view",
      "type": "function"
    },
    {
      "inputs": [],
      "name": "renounceOwnership",
      "outputs": [],
      "stateMutability": "nonpayable",
      "type": "function"
    },
    {
      "inputs": [],
      "name": "startBlock",
      "outputs": [
        {
          "internalType": "uint256",
          "name": "",
          "type": "uint256"
        }
      ],
      "stateMutability": "view",
      "type": "function"
    },
    {
      "inputs": [],
      "name": "tokenAddress",
      "outputs": [
        {
          "internalType": "address",
          "name": "",
          "type": "address"
        }
      ],
      "stateMutability": "view",
      "type": "function"
    },
    {
      "inputs": [],
      "name": "tokenPerBlock",
      "outputs": [
        {
          "internalType": "uint256",
          "name": "",
          "type": "uint256"
        }
      ],
      "stateMutability": "view",
      "type": "function"
    },
    {
      "inputs": [],
      "name": "tokenVault",
      "outputs": [
        {
          "internalType": "address",
          "name": "",
          "type": "address"
        }
      ],
      "stateMutability": "view",
      "type": "function"
    },
    {
      "inputs": [
        {
          "internalType": "address",
          "name": "newOwner",
          "type": "address"
        }
      ],
      "name": "transferOwnership",
      "outputs": [],
      "stateMutability": "nonpayable",
      "type": "function"
    },
    {
      "inputs": [],
      "name": "updatePool",
      "outputs": [],
      "stateMutability": "nonpayable",
      "type": "function"
    },
    {
      "inputs": [
        {
          "internalType": "uint256",
          "name": "_reducingRate",
          "type": "uint256"
        }
      ],
      "name": "updateReducingRate",
      "outputs": [],
      "stateMutability": "nonpayable",
      "type": "function"
    },
    {
      "inputs": [
        {
          "internalType": "address",
          "name": "",
          "type": "address"
        }
      ],
      "name": "userInfo",
      "outputs": [
        {
          "internalType": "uint256",
          "name": "amount",
          "type": "uint256"
        },
        {
          "internalType": "uint256",
          "name": "rewardDebt",
          "type": "uint256"
        }
      ],
      "stateMutability": "view",
      "type": "function"
    },
    {
      "inputs": [
        {
          "internalType": "uint256",
          "name": "_amount",
          "type": "uint256"
        }
      ],
      "name": "withdraw",
      "outputs": [],
      "stateMutability": "nonpayable",
      "type": "function"
    }
  ],
  "bytecode": "0x608060405264e8d4a5100060015534801561001957600080fd5b5061002a61002561002f565b610033565b610083565b3390565b600080546001600160a01b038381166001600160a01b0319831681178455604051919092169283917f8be0079c531659141344cd1fd0a4f28419497f9722a3daafe3b4186f6b6457e09190a35050565b611b38806100926000396000f3fe608060405234801561001057600080fd5b50600436106101c45760003560e01c806369864418116100f9578063b6b55f2511610097578063db2e21bc11610071578063db2e21bc14610321578063e3161ddd14610329578063f2fde38b14610331578063fca7a0e014610344576101c4565b8063b6b55f25146102f3578063c9323e3114610306578063cde10ca01461030e576101c4565b80638da5cb5b116100d35780638da5cb5b146102c85780638dbb1e3a146102d05780639d76ea58146102e3578063a9f8d181146102eb576101c4565b806369864418146102a55780636eb98304146102ad578063715018a6146102c0576101c4565b80634198709a11610166578063571e615011610140578063571e61501461026f5780635bc789d9146102775780635d9a6e6b1461027f5780636386c1c714610292576101c4565b80634198709a1461025757806348cd4cb11461025f5780634ee0ab0d14610267576101c4565b806322f3e2d4116101a257806322f3e2d41461021d5780632e1a7d4d146102325780632fe19ff1146102475780633992fba51461024f576101c4565b8063081399c0146101c95780631959a002146101e757806321df0da714610208575b600080fd5b6101d161034c565b6040516101de91906118c3565b60405180910390f35b6101fa6101f536600461131d565b610352565b6040516101de9291906118cc565b61021061036b565b6040516101de91906114c2565b61022561037a565b6040516101de9190611513565b610245610240366004611455565b610383565b005b6101d161045f565b6101d1610465565b6101d161046b565b6101d1610471565b610245610477565b6101d16104f1565b6102106104f7565b61024561028d366004611355565b610506565b6101fa6102a036600461131d565b6108e9565b6101d161090c565b6102456102bb366004611455565b610912565b6102456109aa565b6102106109f5565b6101d16102de366004611485565b610a04565b610210610a29565b6101d1610a38565b610245610301366004611455565b610a3e565b6101d1610b48565b6101d161031c36600461131d565b610b4e565b610245610c9d565b610245610d0e565b61024561033f36600461131d565b610e36565b6101d1610ea7565b600b5481565b600d602052600090815260409020805460019091015482565b6002546001600160a01b031690565b60085460ff1681565b336000908152600d6020526040902080548211156103bc5760405162461bcd60e51b81526004016103b390611773565b60405180910390fd5b60085460ff161515600114156103d4576103d4610d0e565b81156104005780546103e7908390611a39565b8155600254610400906001600160a01b03163384610ead565b60015460075482546104129190611a1a565b61041c91906118f2565b600182015560405133907f884edad9ce6fa2440d8a54cc123490eb96d2768479d49ff9c7366125a9424364906104539085906118c3565b60405180910390a25050565b60045490565b60015481565b60045481565b60055481565b61047f610f08565b6001600160a01b03166104906109f5565b6001600160a01b0316146104b65760405162461bcd60e51b81526004016103b39061173e565b60085460ff1615156001146104dd5760405162461bcd60e51b81526004016103b3906117aa565b6104e5610d0e565b6008805460ff19169055565b60075481565b6003546001600160a01b031681565b600054600160a81b900460ff16806105285750600054600160a01b900460ff16155b6105445760405162461bcd60e51b81526004016103b390611682565b600054600160a81b900460ff1615801561057b576000805460ff60a01b1960ff60a81b19909116600160a81b1716600160a01b1790555b6001600160a01b0385166105a15760405162461bcd60e51b81526004016103b390611588565b6103e884116105c25760405162461bcd60e51b81526004016103b39061180b565b4383116105e15760405162461bcd60e51b81526004016103b390611551565b60008260008151811061060457634e487b7160e01b600052603260045260246000fd5b6020026020010151116106295760405162461bcd60e51b81526004016103b390611605565b60008260018151811061064c57634e487b7160e01b600052603260045260246000fd5b6020026020010151116106715760405162461bcd60e51b81526004016103b390611707565b60008260028151811061069457634e487b7160e01b600052603260045260246000fd5b60200260200101511180156106d157506064826001815181106106c757634e487b7160e01b600052603260045260246000fd5b6020026020010151105b6106ed5760405162461bcd60e51b81526004016103b3906116d0565b60008260038151811061071057634e487b7160e01b600052603260045260246000fd5b6020026020010151116107355760405162461bcd60e51b81526004016103b39061188c565b600380546001600160a01b0319166001600160a01b03871690811790915560408051637e062a3560e11b8152905163fc0c546a91600480820192602092909190829003018186803b15801561078957600080fd5b505afa15801561079d573d6000803e3d6000fd5b505050506040513d601f19601f820116820180604052508101906107c19190611339565b600280546001600160a01b0319166001600160a01b0392909216919091179055600484905560058390558151829060009061080c57634e487b7160e01b600052603260045260246000fd5b60200260200101516009819055508160018151811061083b57634e487b7160e01b600052603260045260246000fd5b6020026020010151600a819055508160028151811061086a57634e487b7160e01b600052603260045260246000fd5b6020026020010151600b819055508160038151811061089957634e487b7160e01b600052603260045260246000fd5b6020908102919091010151600c556008805460ff1916600117905560004384106108c357836108c5565b435b60065550600060075580156108e2576000805460ff60a81b191690555b5050505050565b6001600160a01b03166000908152600d6020526040902080546001909101549091565b600c5481565b61091a610f08565b6001600160a01b031661092b6109f5565b6001600160a01b0316146109515760405162461bcd60e51b81526004016103b39061173e565b60085460ff1615156001146109785760405162461bcd60e51b81526004016103b3906117aa565b600081118015610989575060648111155b6109a55760405162461bcd60e51b81526004016103b3906116d0565b600b55565b6109b2610f08565b6001600160a01b03166109c36109f5565b6001600160a01b0316146109e95760405162461bcd60e51b81526004016103b39061173e565b6109f36000610f0c565b565b6000546001600160a01b031690565b6000610a0f83610f5c565b610a1883610f5c565b610a229190611a39565b9392505050565b6002546001600160a01b031681565b60065481565b60085460ff161515600114610a655760405162461bcd60e51b81526004016103b3906117aa565b336000908152600d60205260409020610a7c610d0e565b805415610ac757600081600101546001546007548460000154610a9f9190611a1a565b610aa991906118f2565b610ab39190611a39565b90508015610ac557610ac533826110e9565b505b8115610af557600254610ae5906001600160a01b0316333085611151565b8054610af29083906118da565b81555b6001546007548254610b079190611a1a565b610b1191906118f2565b600182015560405133907fe1fffcc4923d04b559f4d29a8bfc6cda04eb5b0d3c460751c2402c5c5cc9109c906104539085906118c3565b600a5481565b6001600160a01b038082166000908152600d602052604080822060075460025492516370a0823160e01b8152939491939092859216906370a0823190610b989030906004016114c2565b60206040518083038186803b158015610bb057600080fd5b505afa158015610bc4573d6000803e3d6000fd5b505050506040513d601f19601f82011682018060405250810190610be8919061146d565b905060065443118015610bfa57508015155b8015610c0d575060085460ff1615156001145b15610c69576000610c2060065443610a04565b9050600060015460045483610c359190611a1a565b610c3f91906118f2565b90508260015482610c509190611a1a565b610c5a91906118f2565b610c6490856118da565b935050505b60018084015490548454610c7e908590611a1a565b610c8891906118f2565b610c929190611a39565b93505050505b919050565b336000818152600d6020526040902080546002549192610cc6926001600160a01b031691610ead565b805460405133917f5fafa99d0643513820be26656b45130b01e1c03062e1266bf36f88cbd3bd969591610cf991906118c3565b60405180910390a26000808255600190910155565b60085460ff161515600114610d355760405162461bcd60e51b81526004016103b3906117aa565b6006544311610d43576109f3565b6002546040516370a0823160e01b81526000916001600160a01b0316906370a0823190610d749030906004016114c2565b60206040518083038186803b158015610d8c57600080fd5b505afa158015610da0573d6000803e3d6000fd5b505050506040513d601f19601f82011682018060405250810190610dc4919061146d565b905080610dd55750436006556109f3565b6000610de360065443610a04565b9050600060015460045483610df89190611a1a565b610e0291906118f2565b90508260015482610e139190611a1a565b610e1d91906118f2565b600754610e2a91906118da565b60075550504360065550565b610e3e610f08565b6001600160a01b0316610e4f6109f5565b6001600160a01b031614610e755760405162461bcd60e51b81526004016103b39061173e565b6001600160a01b038116610e9b5760405162461bcd60e51b81526004016103b3906115bf565b610ea481610f0c565b50565b60095481565b610f038363a9059cbb60e01b8484604051602401610ecc9291906114fa565b60408051601f198184030181529190526020810180516001600160e01b03166001600160e01b031990931692909217909152611178565b505050565b3390565b600080546001600160a01b038381166001600160a01b0319831681178455604051919092169283917f8be0079c531659141344cd1fd0a4f28419497f9722a3daafe3b4186f6b6457e09190a35050565b600080600c5460055484610f709190611a39565b610f7a91906118f2565b905080610fb057600154600954600554610f949086611a39565b610f9e9190611a1a565b610fa89190611a1a565b915050610c98565b6000600154600954600c54610fc59190611a1a565b610fcf9190611a1a565b905060005b610fdf600184611a39565b81101561104e57600c54610ff482606461194c565b82600b54611002919061194c565b600a546001546110129190611a1a565b61101c9190611a1a565b61102691906118f2565b6110309190611a1a565b61103a90836118da565b91508061104681611a7c565b915050610fd4565b6000600c54600554876110619190611a39565b61106b9190611a97565b11156110df57600c546005546110819087611a39565b61108b9190611a97565b61109682606461194c565b82600b546110a4919061194c565b600a546001546110b49190611a1a565b6110be9190611a1a565b6110c891906118f2565b6110d29190611a1a565b6110dc90836118da565b91505b509150610c989050565b60035460405163301d29db60e01b81526001600160a01b039091169063301d29db9061111b90859085906004016114fa565b600060405180830381600087803b15801561113557600080fd5b505af1158015611149573d6000803e3d6000fd5b505050505050565b611172846323b872dd60e01b858585604051602401610ecc939291906114d6565b50505050565b60006111cd826040518060400160405280602081526020017f5361666545524332303a206c6f772d6c6576656c2063616c6c206661696c6564815250856001600160a01b03166112079092919063ffffffff16565b805190915015610f0357808060200190518101906111eb9190611435565b610f035760405162461bcd60e51b81526004016103b390611842565b6060611216848460008561121e565b949350505050565b6060824710156112405760405162461bcd60e51b81526004016103b39061163c565b611249856112de565b6112655760405162461bcd60e51b81526004016103b3906117d4565b600080866001600160a01b0316858760405161128191906114a6565b60006040518083038185875af1925050503d80600081146112be576040519150601f19603f3d011682016040523d82523d6000602084013e6112c3565b606091505b50915091506112d38282866112e4565b979650505050505050565b3b151590565b606083156112f3575081610a22565b8251156113035782518084602001fd5b8160405162461bcd60e51b81526004016103b3919061151e565b60006020828403121561132e578081fd5b8135610a2281611aed565b60006020828403121561134a578081fd5b8151610a2281611aed565b6000806000806080858703121561136a578283fd5b843561137581611aed565b9350602085810135935060408601359250606086013567ffffffffffffffff808211156113a0578384fd5b818801915088601f8301126113b3578384fd5b8135818111156113c5576113c5611ad7565b838102604051858282010181811085821117156113e4576113e4611ad7565b604052828152858101935084860182860187018d1015611402578788fd5b8795505b83861015611424578035855260019590950194938601938601611406565b50989b979a50959850505050505050565b600060208284031215611446578081fd5b81518015158114610a22578182fd5b600060208284031215611466578081fd5b5035919050565b60006020828403121561147e578081fd5b5051919050565b60008060408385031215611497578182fd5b50508035926020909101359150565b600082516114b8818460208701611a50565b9190910192915050565b6001600160a01b0391909116815260200190565b6001600160a01b039384168152919092166020820152604081019190915260600190565b6001600160a01b03929092168252602082015260400190565b901515815260200190565b600060208252825180602084015261153d816040850160208701611a50565b601f01601f19169190910160400192915050565b60208082526019908201527f4661726d3a20496e76616c696420737461727420626c6f636b00000000000000604082015260600190565b60208082526019908201527f4661726d3a20496e76616c6964207661756c7420746f6b656e00000000000000604082015260600190565b60208082526026908201527f4f776e61626c653a206e6577206f776e657220697320746865207a65726f206160408201526564647265737360d01b606082015260800190565b6020808252601e908201527f4661726d3a20496e76616c6964206669727374206379636c6520726174650000604082015260600190565b60208082526026908201527f416464726573733a20696e73756666696369656e742062616c616e636520666f6040820152651c8818d85b1b60d21b606082015260800190565b6020808252602e908201527f496e697469616c697a61626c653a20636f6e747261637420697320616c72656160408201526d191e481a5b9a5d1a585b1a5e995960921b606082015260800190565b6020808252601b908201527f4661726d3a20496e76616c6964207265647563696e6720726174650000000000604082015260600190565b6020808252601a908201527f4661726d3a20496e76616c696420696e697469616c2072617465000000000000604082015260600190565b6020808252818101527f4f776e61626c653a2063616c6c6572206973206e6f7420746865206f776e6572604082015260600190565b6020808252601c908201527f77697468647261773a20616d6f756e7420697320746f6f206869676800000000604082015260600190565b60208082526010908201526f4661726d3a204e6f742061637469766560801b604082015260600190565b6020808252601d908201527f416464726573733a2063616c6c20746f206e6f6e2d636f6e7472616374000000604082015260600190565b6020808252601a908201527f4661726d3a20496e76616c696420626c6f636b20726577617264000000000000604082015260600190565b6020808252602a908201527f5361666545524332303a204552433230206f7065726174696f6e20646964206e6040820152691bdd081cdd58d8d9595960b21b606082015260800190565b6020808252601c908201527f4661726d3a20496e76616c6964207265647563696e67206379636c6500000000604082015260600190565b90815260200190565b918252602082015260400190565b600082198211156118ed576118ed611aab565b500190565b60008261190157611901611ac1565b500490565b80825b60018086116119185750611943565b81870482111561192a5761192a611aab565b8086161561193757918102915b9490941c938002611909565b94509492505050565b6000610a22600019848460008261196557506001610a22565b8161197257506000610a22565b81600181146119885760028114611992576119bf565b6001915050610a22565b60ff8411156119a3576119a3611aab565b6001841b9150848211156119b9576119b9611aab565b50610a22565b5060208310610133831016604e8410600b84101617156119f2575081810a838111156119ed576119ed611aab565b610a22565b6119ff8484846001611906565b808604821115611a1157611a11611aab565b02949350505050565b6000816000190483118215151615611a3457611a34611aab565b500290565b600082821015611a4b57611a4b611aab565b500390565b60005b83811015611a6b578181015183820152602001611a53565b838111156111725750506000910152565b6000600019821415611a9057611a90611aab565b5060010190565b600082611aa657611aa6611ac1565b500690565b634e487b7160e01b600052601160045260246000fd5b634e487b7160e01b600052601260045260246000fd5b634e487b7160e01b600052604160045260246000fd5b6001600160a01b0381168114610ea457600080fdfea2646970667358221220fb0d4ad2fa6c34d26f2ac3fd7733b52dc6ebb374229d4d373d76827ecb3ca06864736f6c63430008000033",
  "linkReferences": {},
  "deployedLinkReferences": {}
}